:0400000080313B28E8
:100008007E1480312E008C1E0A280B281828833174
:10001800AE2380318231522280312E008C12FE3084
:1000280020009D00AF309C002E008F1E1C281D282C
:1000380039288F128531242580310B30F0000030AB
:10004800F1007908F700F8017708F2007808F30062
:1000580083315B238031F430700784000430713DB4
:100068008038850000082000BC007E10090080311F
:100078003D28F901FA01FB01FC01FD012000B9014D
:10008800BA01BB01BC01BD01BE01BF017E10200049
:100098008031FE282000AC01AD010B30BF0070306C
:1000A800910070303E00B80004302000A900AA0179
:1000B800AB01AC01AD0121001E0820002906C039A2
:1000C800290621009E0094132000A501A601210005
:1000D80013141318702871286D280C082000AA071B
:1000E80021000D082000AB3D0130A5070030A63DDA
:1000F8002608803AA20080302202031D8528083095
:100108002502031C882889286B2820002B08A300B7
:100118002A08A200230DA30CA20C230DA30CA20CE9
:10012800230DA30CA20C2208AA002308AB0021006F
:1001380094172000A701A801210013141318A5285B
:10014800A628A2280C082000AC0721000D082000D2
:10015800AD3D0130A7070030A83D2808803AA2002D
:1001680080302202031DBA2808302702031CBD284C
:10017800BE28A02820002D08A3002C08A200230DCB
:10018800A30CA20C230DA30CA20C230DA30CA20CF0
:100198002208AC002308AD002A082C02A2002B0874
:1001A8002D3BA3002308803AA40081302402031DBC
:1001B800DF282D302202031CE228E328EB28200048
:1001C8002A082C02A0002B082D3BA100FD28013095
:1001D8002000A2002208BF070130A2002208A907B8
:1001E80007302902031CF928FA285B28FF30BF00D2
:1001F800E32808000F303E00B900B8012000930141
:1002080092018B172E0096160B17903020009E0037
:1002180050309F00FF30C000FC01FC3021009A05DF
:100228001A12C03098059317131313121315803040
:1002380094000F309C000F309D0002302000A70072
:100248000030A8008131F321803184317724803156
:10025800F43084008430850000082000B900F430B0
:100268008400843085000008BA00F43084008430AB
:1002780085000008BB00F430840084308500000845
:10028800BC000830BE0080314E208031200021089B
:10029800B6002008B500350E0F39B700360EF03914
:1002A800B704360E0F39B800F030B81D0030B80466
:1002B8003808B1003708B0008231B12280310B30E4
:1002C80020003F06031D69296A296D298431A62467
:1002D80080310C3020003F06031D732974297729CB
:1002E8008431912480310D3020003F06031D7D2983
:1002F8007E2981298431BB2480312330853116251C
:1003080080310D308531162580310A30853116252A
:100318008031853105258031472980313B282000EF
:10032800AD01A81F98299929A029A709A809A70AF2
:100338000319A80AAD01AD0AAA1FA329A429AD294A
:10034800A909AA09A90A0319AA0A0130AB002B08AE
:10035800AD06AE01AF01270828040319B429B52951
:10036800E429AC01AC0AC1290130A735A80D890BD5
:10037800B9290130AB002B08AC07A81FC429C5292F
:10038800B8290130AE35AF0D890BC62928082A02D5
:10039800031DD02927082902031CD329D429D929C8
:1003A8002708A9022808AA3B2E140130A836A70C52
:1003B800890BDA290130AC02031DE329E429C52998
:1003C8002D080319E829E929EE29AE09AF09AE0A73
:1003D8000319AF0A2F08A8002E08A700080020005C
:1003E8002808A1002708A0000B30A2000030A300B5
:1003F80084315724813120002108A8002008A70053
:10040800AD01AE01432A0B302000A0000030A1004E
:100418002E08A3002D08A200833107238131200074
:1004280021088500200884008435850D8435850DD4
:10043800DD3084070330053D80388500003FA90082
:10044800013FAA00023FAB00033FAC0039308600F1
:1004580087012908C03F2A08C13F2B08C23F2C0842
:10046800C33F08302000A900C930890B392AA90BDD
:10047800392A003201302000AD070030AE3D2E0889
:10048800803AA9002808803A2902031D4D2A270826
:100498002D02031C502A512A072A080084313124CE
:1004A80082317D08031D592A5A2A772A8030200074
:1004B8004006031D602A612A642A8431E2248231BD
:1004C800043020004002031C6A2A6B2A6C2AFC01B3
:1004D800400A031D702A712A722AB02A0130F200DC
:1004E8007208C007B02AC8307C06031D7C2A7D2A02
:1004F800832A8431D024823181302000C000023028
:100508007C06031D882A892AA62A7B08F200033064
:10051800F235FF3E031D8C2A7235FB007B087D06F1
:10052800FB0080302000400203189B2A9C2AA52A41
:1005380084310924823181302000C000C930FC0098
:10054800B02AC0017C0A031DAA2AAB2AAC2AB02A09
:100558000130F2007208FC07080064302000A70090
:100568000030A8003108AA003008A9008131932181
:10057800823120002708303EB2000A30A700003040
:10058800A8003108A3003008A2006430A0000030A1
:10059800A10083310723823120002108AA00200806
:1005A800A90081319321823120002708303EB30011
:1005B8000A30A0000030A1003108A3003008A200D2
:1005C80083310723823120002008303EB4001B30DD
:1005D8008531162582315B30853116258231200020
:1005E80032088531162582312000330885311625D9
:1005F8008231200034088531162582314730853113
:100608001625823108002000A601A31F0C2B0D2BF4
:10061800142BA209A309A20A0319A30AA601A60A70
:10062800A11F172B182B1D2BA009A109A00A03191C
:10063800A10A200821040319222B232B4C2BA501E6
:10064800A50A2F2B0130A035A10D890B272B0130CE
:10065800A4002408A507A11F322B332B262B210821
:100668002302031D392B20082202031C3C2B3D2B9F
:10067800412B2008A2022108A33B0130A136A00C7F
:10068800890B422B0130A502031D4B2B4C2B332B1E
:1006980026080319502B512B562BA209A309A20A8D
:1006A8000319A30A2308A1002208A0000800F601E4
:1006B800F31F5F2B602B672BF209F309F20A03196A
:1006C800F30AF601F60AF11F6A2B6B2B702BF0095F
:1006D800F109F00A0319F10A700871040319752B5E
:1006E800762B9F2BF501F50A822B0130F035F10DA1
:1006F800890B7A2B0130F4007408F507F11F852B5C
:10070800862B792B71087302031D8C2B70087202DB
:10071800031C8F2B902B942B7008F2027108F33B6B
:100728000130F136F00C890B952B0130F502031DD1
:100738009E2B9F2B862B76080319A32BA42BA92B62
:10074800F209F309F20A0319F30A7308F1007208AF
:10075800F00008000130FA02FF30200097007A0804
:100768000339393E860087010108980080307A02F3
:100778000318BF2BC02BCB2B7A080339203E8400EB
:1007880085300318013E850000089700DC2B803077
:100798007A02031CD02BD12BDC2B7A080339203E9C
:1007A800840085300318013E850000083E04970048
:1007B8000800003400340034283400340034803415
:1007C8008034003480348034003480348034003401
:1007D8000034C03400340034003441340034003470
:1007E800003403340034003400340234023400345A
:1007F800003400340234023400340034003402344B
:1008080002340034003400340A347B08F000043029
:10081800F036890B0C2C70080F39F1000F307B056E
:10082800F0007008710603191A2C1B2C1F2C843138
:10083800E2248431302C043084008530850000089F
:100848002000BC007B080F39F43E84008430031874
:10085800013E85000008BB0008000830F1000A309E
:10086800FD000F30200091008C01512C7108F00020
:10087800482C70080C05031D422C432C442C562C84
:100888000130FD027036F0007008031D4C2C4D2C11
:100898003D2C113691007136F1007108031D552C5D
:1008A800562C3A2C08002000A401A501201C5D2C20
:1008B8005E2C622C2208A4072308A53D0130A2352E
:1008C800A30D890B632C0130A136A00C890B682C71
:1008D80020082104031D712C722C5A2C2508A10014
:1008E8002408A00008002000121392173E00C3132A
:1008F80022009C0119309B001E159F151E129D1782
:1009080010303E009E0022009E160F303D00CB00A6
:1009180022001D162E00991608001B308531162559
:1009280084315B3085311625843133308531162585
:10093800843133308531162584316D308531162563
:10094800843108001B308531162584315B308531B0
:10095800162584313330853116258431313085317F
:10096800162584316D3085311625843108001B30F9
:100978008531162584315B30853116258431333035
:1009880085311625843132308531162584316D3014
:1009980085311625843108000330840085308500B0
:1009A80000082000BC007B080F39F43E8400843026
:1009B8000318013E85000008BA00080002308400D0
:1009C8008530850000082000BC007B080F39F43E04
:1009D800840084300318013E85000008B90008002F
:1009E800EB342834B334BA347834DA34DB34A8340A
:1009F800FB34FA34F9345B34C3343B34DE344734E3
:100A08003F341B308531162585315B3085311625FD
:100A1800853130308531162585316D308531162583
:100A2800853108002000A000200822009A009E1CA2
:100A38001E2D1F2D1B2D0800FE34FD34FB34F7340A
:080A480022001908F900080062
:020000040001F9
:0A000E00EC1FFF37BF3FFE2FFF3F3E
:00000001FF
