:0400000080311A2809
:100008007E1480312E008C1E0A280B281828823175
:10001800342280318131812180312E008C12FE30D2
:1000280020009D00AF309C007E10090080311C2804
:10003800F801F901FA012000AD01AE01AF01B001EC
:10004800B101B201B301B4017E10200080312C2827
:100058000F303E00B900B8012000930192018B17C0
:100068002E009616903020009E0050309F00FF30E2
:10007800B500B401FC3021009A051A12C030980569
:100088009317131313121315803094000F309C002C
:100098000F309D0002302000A2000030A300813103
:1000A80022218031843084008330850000082000BC
:1000B800AD0084308400833085000008AE008430B1
:1000C8008400833085000008AF00843084008330CA
:1000D80085000008B0000830B2008031B1208031BE
:1000E80074082000AC007308AB002B032C04031D1C
:1000F8007E287F2889288331022380319330840029
:100108008330850000082000B0002B082C04031D54
:100118008E288F2893280830AA002A08B2062B0AAE
:10012800031D9A282C0A031D9A289B28A52882318A
:10013800DD22803192308400833085000008200061
:10014800B00006302000AA003030890BA928AA0B7D
:10015800A9280000712880311A28FF302000A20049
:10016800FF30A3007030910070303E00B8000430BA
:100178002000A600A401A50121001E0820002606D3
:10018800C039260621009E002000A001A1012100FF
:1001980013141318D028D128CD280C082000A40740
:1001A80021000D082000A53D0130A0070030A13D29
:1001B8002108803AF50080307502031DE5280830D3
:1001C8002002031CE828E928CB2820002508F6008F
:1001D8002408F500760DF60CF50C760DF60CF50CEA
:1001E800760DF60CF50C7508A4007608A500250810
:1001F800803AF50082307502031D0429EF3024028D
:10020800031C072908290E2920002308F4002208C6
:10021800F300212901302000A2070030A33D01305E
:10022800F5007508A60707302602031C1C291D299E
:10023800BE280230F3000030F40008002000230834
:10024800F4002208F3000B30F5000030F60083318B
:100258002723813174082000A3007308A200A80195
:10026800A90172290B30F3000030F400200029089E
:10027800F6002808F5008131E021813174088500F5
:10028800730884008435850D8435850D63308407B3
:100298000230053D80388500003F2000A400013F62
:1002A800A500023FA600033FA7002D308600870166
:1002B8002408C03F2508C13F2608C23F2708C33F7E
:1002C80008302000A400C930890B6829A40B6829CC
:1002D800003201302000A8070030A93D2908803AE3
:1002E800A4002308803A2402031D7C29220828023E
:1002F800031C7F298029362908008231B7228131E1
:100308007A08031D88298929A62980302000350606
:10031800031D8F2990299329833172238131043059
:1003280020003502031C99299A299B29B401350A12
:10033800031D9F29A029A129DF290130F200720895
:10034800B507DF29C83020003406031DAC29AD29C4
:10035800B32983316023813181302000B500023018
:100368003406031DB829B929D5297908F2000330C4
:10037800F235FF3E031DBC297235F90079087A066B
:10038800F900803035020318CA29CB29D4298231D3
:100398008F22813181302000B500C930B400DF29B7
:1003A800B501340A031DD929DA29DB29DF290130EF
:1003B800F2007208B40708002000A101F61FE52921
:1003C800E629ED29F509F609F50A0319F60AA10146
:1003D800A10AF41FF029F129F629F309F409F30A0F
:1003E8000319F40A730874040319FB29FC29252A44
:1003F800A001A00A082A0130F335F40D890B002A60
:100408000130F7007708A007F41F0B2A0C2AFF29F0
:1004180074087602031D122A73087502031C152A34
:10042800162A1A2A7308F5027408F63B0130F436C6
:10043800F30C890B1B2A0130A002031D242A252A4C
:100448000C2A21080319292A2A2A2F2AF509F6092C
:10045800F50A0319F60A7608F4007508F30008008F
:100468000130F802FF3020009700780803392D3E4C
:100478008600870101089800803078020318452A11
:10048800462A512A780803399E3E8400833003188F
:10049800013E850000089700622A80307802031C1C
:1004A800562A572A622A780803399E3E84008330E8
:1004B8000318013E85000008320497000800003444
:1004C800003400342834003400348034803400345C
:1004D8008034803400348034803400340034C034B4
:1004E8000034003400344134003400340034033420
:1004F8000034003400340234023400340034003450
:10050800023402340034003400340234023400343B
:10051800003400340A347908F0000430F036890BCE
:10052800922A70080F39F1000F307905F000700831
:1005380071060319A02AA12AA52A833172238231C0
:10054800B62A943084008330850000082000B0006B
:1005580079080F39843E840083300318013E8500F2
:100568000008AF0008000830F1000A30FA000F3028
:10057800200091008C01D72A7108F000CE2A70085B
:100588000C05031DC82AC92ACA2ADC2A0130FA0226
:100598007036F0007008031DD22AD32AC32A1136F8
:1005A80091007136F1007108031DDB2ADC2AC02A8C
:1005B80008000030F300F030F40020002D088331EB
:1005C800492382310130F300F030F40020002E0876
:1005D8008331492382310230F300F030F4002000E7
:1005E8002F088331492382310330F300F030F400BF
:1005F8002000300883314923823108000030F3009D
:10060800F030F4008331952383312000AD000130B0
:10061800F300F030F4008331952383312000AE00DD
:100628000230F300F030F400833195238331200049
:10063800AF000330F300F030F400833195238331A9
:100648002000B00008002000A001A101731C2D2B80
:100658002E2B332B75082000A0077608A13D01300A
:10066800F535F60D890B342B0130F436F30C890B74
:10067800392B73087404031D422B432B2A2B2000AB
:100688002108F4002008F3000800F5007508300080
:100698009C001E171E1574089B0073089A008B1384
:1006A8001E1555309F00AA309F009E148B179E1868
:1006B8005E2B5F2B5B2B0800933084008330850012
:1006C80000082000B00079080F39843E8400833088
:1006D8000318013E85000008AE000800923084002F
:1006E8008330850000082000B00079080F39843E67
:1006F800840083300318013E85000008AD0008001F
:10070800EB342834B334BA347834DA34DB34A834EC
:10071800FB34FA34F9345B34C3343B34DE344734C5
:100728003F3430001E1774089B0073089A001E148B
:0C0738001C080800FE34FD34FB34F734CC
:020000040001F9
:0A000E00EC1FFF37BF3FFE2FFF3F3E
:00000001FF
