:0600000080310F28803161
:10000800D9207420FE302E008C1220009D00AF30C5
:1000180020009C0009003E00B901B9093E00B80162
:10002800200092012000930120008B172E009616C5
:10003800200090309E00200050309F00FA01FA09FD
:10004800F9010830F120F000F101F201F3016D200F
:100058000830F120F100F001F201F3016D200830C1
:10006800F120F200F101F001F3016D200830F120D8
:10007800F300F101F201F0016D200830F120F000E9
:10008800F101F201F3016D200830F120F100F001D7
:10009800F201F3016D200830F120F200F101F001C6
:1000A800F3016D200830F120F300F101F201F001B5
:1000B8006D200030F120F0000030F120F100003018
:1000C800F120F2000030F120F3001030F6006B2828
:1000D8000029FC0B6D28FD0B6D280F30FD00080072
:1000E800C2207708031D852880307A020319A620CC
:1000F800FC307A05031DF901FF307A06031DFA0A60
:100108000800C8307906031D8D28AE208130FA001A
:100118009B2802307906031D9B28FB0EF030FB0557
:100128007708FB0680307A050319A028FA01FF300A
:100138007906031DF90A0800B6208130FA00C93093
:10014800F90008000B30F120F3007B080F39F1208B
:10015800F00008000C30F120F3007B080F39F12083
:10016800F10008007B0E7B06031DA6280D30F12048
:10017800F3007B080F39F120F20008000A30F7007D
:1001880020000F3091008C010830F8007808F50045
:100198000C0503190800F7037536031DCB2820004A
:1001A8009136F836031DCA280800F4032000980188
:1001B800980974080339703E8400200000089700ED
:1001C80074080339EC2098007608F41B980408009A
:1001D8008207FD34FB34F734EF348207EB342834DC
:1001E800B334BA347834DA34DB34A834FB34FA3430
:0801F800F934DE3443343B34DA
:020000040001F9
:0A000E00ECDFFFF7BFFFFEEFFFFF7E
:00000001FF
