:0600000080310E28803162
:100008004E20FB302E008C1220009D00FF30200077
:100018009C000900200092012000930120008B170A
:100028002E009616200090309E00200050309F0031
:100038002000980198090130F9000230FA000330D5
:10004800FB000430FC00FD30F500FB30F600F73013
:10005800F700EF30F8000A30FF0079307D078400A0
:10006800800A0008722080006720FE0070307D073B
:1000780084007E088000FD0A0330FD050319462030
:10008800312879288F30FE00FF30090B4928FE0BF4
:1000980048280800F40320009801980974080339D7
:1000A800703E840020000008970074080339753EEC
:1000B80084002000000898007F08F41B98040800BA
:1000C8007F08980408008207EB342834B334BA3424
:1000D8007834DA34DB34A834FB34FA34FE000A30DE
:0A00E800FE02031874287E070800CA
:020000040001F9
:0A000E00ECDFFFF7BFFFFEEFFFFF7E
:00000001FF
